:100000000C942A000C9447000C9447000C94470071
:100010000C9447000C9447000C9447000C94FA1180
:100020000C9447000C9447000C9447000C94470034
:100030000C9447000C945E2E0C94CA2E0C94942EB3
:100040000C94B0240C9447000C9447000C94470087
:100050000C94470011241FBECFE5D8E0DEBFCDBF12
:1000600010E0A0E6B0E0E8E0F5E602C005900D92F1
:10007000A23FB107D9F717E0A2EFB0E001C01D928F
:10008000A039B107E1F70E94DA2E0C9482320C9469
:100090000000EF92FF920F931F937B018C0120E0F1
:1000A00030E040E05FE40E94490388238CF0C801FF
:1000B000B70120E030E040E05FE40E94C1010E940F
:1000C000A9039B01AC01205030404040504806C07D
:1000D000C801B7010E94A9039B01AC01B901CA0183
:1000E0001F910F91FF90EF900895A0E0B0E0EBE733
:1000F000F0E00C944232DC012B01FA019C91923029
:1001000008F439C1EB018881823008F433C194309E
:1001100069F4843009F02FC111969C91119789815F
:10012000981709F428C1A5EEB0E025C1843009F480
:1001300021C18230A9F4923009F01DC19A01AD01AC
:1001400088E0EA010990AE01E90109929E0181501F
:10015000C1F7E201898111969C918923818308C1AD
:10016000923009F407C112962D903C901397EB0141
:100170008A819B811496AD90BD90CD90DC901797AD
:10018000EC80FD800E811F819101281B390BB90184
:1001900037FF04C066277727621B730B6032710537
:1001A0000CF061C0121613066CF537014801062EDB
:1001B00004C096948794779467940A94D2F721E0C8
:1001C00030E040E050E004C0220F331F441F551FB1
:1001D0006A95D2F721503040404050402E213F21B7
:1001E00040235123211531054105510521F021E01E
:1001F00030E040E050E079018A01E628F72808293C
:1002000019293CC0232BD1F1260E371E350146019A
:10021000062E04C096948794779467940A94D2F734
:1002200021E030E040E050E004C0220F331F441FC3
:10023000551F6A95D2F721503040404050402A2146
:100240003B214C215D21211531054105510521F04E
:1002500021E030E040E050E059016A01A628B728CB
:10026000C828D9280BC0821593052CF01C01AA249C
:10027000BB24650103C0EE24FF24870111969C91E5
:10028000D20111968C91981709F445C0992339F041
:10029000A80197012A193B094C095D0906C0A6016E
:1002A00095012E193F09400B510B57FD08C01182D3
:1002B0003382228224833583468357831DC081E0A5
:1002C00081833382228288279927DC01821B930B4A
:1002D000A40BB50B84839583A683B7830DC0220F2F
:1002E000331F441F551F24833583468357838281E0
:1002F000938101979383828324813581468157813D
:10030000DA01C9010197A109B1098F5F9F4FAF4F72
:10031000BF4328F30BC0918333822282EA0CFB1C7B
:100320000C1D1D1DE482F5820683178383E0808304
:10033000248135814681578157FF1AC0C901AA27F8
:1003400097FDA095BA2F81709070A070B0705695EF
:10035000479537952795822B932BA42BB52B848318
:100360009583A683B7838281938101969383828349
:10037000DF0101C0D201CD01CDB7DEB7E2E10C94BF
:100380005E32A0E2B0E0E7ECF1E00C944E3269831B
:100390007A838B839C832D833E834F835887E9E048
:1003A000EE2EF12CEC0EFD1ECE010196B7010E943F
:1003B000D2048E010F5E1F4FCE010596B8010E9438
:1003C000D2048A8991E089278A8BC701B801AE01DE
:1003D000475E5F4F0E9475000E94FD03A096E6E015
:1003E0000C946A32A0E2B0E0E8EFF1E00C944E32F7
:1003F00069837A838B839C832D833E834F835887C5
:10040000F9E0EF2EF12CEC0EFD1ECE010196B701A6
:100410000E94D2048E010F5E1F4FCE010596B801D7
:100420000E94D204C701B801AE01475E5F4F0E942F
:1004300075000E94FD03A096E6E00C946A32A0E2EB
:10044000B0E0E5E2F2E00C94423269837A838B8378
:100450009C832D833E834F835887CE010196BE0136
:10046000675F7F4F0E94D204CE010596BE016F5E8A
:100470007F4F0E94D2049985923088F0898982301A
:10048000C8F0943019F4823051F404C0843029F457
:10049000923081F485EE90E0C6C0923049F420E0BD
:1004A0009A858A89981321E02A87CE010996BBC0D4
:1004B000823049F420E09A858A89981321E02A8BBA
:1004C000CE014196B0C02D843E844F8458886D88FB
:1004D0007E888F88988CEE24FF248701AA24BB2471
:1004E000650140E050E060E070E0E0E0F0E0C10174
:1004F00081709070892BE9F0E60CF71C081D191D1E
:100500009A01AB012A0D3B1D4C1D5D1D80E090E062
:10051000A0E0B0E0E614F7040805190520F481E036
:1005200090E0A0E0B0E0BA01A901480F591F6A1F8E
:100530007B1FAA0CBB1CCC1CDD1C97FE08C081E0F5
:1005400090E0A0E0B0E0A82AB92ACA2ADB2A3196B6
:10055000E032F10549F0660C771C881C991C569412
:10056000479437942794C3CFFA85EA892B893C892D
:100570008B859C85280F391F2E5F3F4F17C0CA01FE
:1005800081709070892B61F016950795F794E79428
:1005900080E090E0A0E0B0E8E82AF92A0A2B1B2BC3
:1005A00076956795579547952F5F3F4F77FDE7CF36
:1005B0000CC0440F551F661F771F17FD4160EE0CDE
:1005C000FF1C001F111F21503040403090E05907A0
:1005D00090E0690790E4790760F32B8F3C8FDB0193
:1005E000CA018F779070A070B07080349105A1051A
:1005F000B10561F447FD0AC0E114F10401051105DC
:1006000029F0405C5F4F6F4F7F4F40781A8EFE1786
:1006100011F081E08A8F4D8F5E8F6F8F78A383E01A
:10062000898FCE0149960E94FD03A096E2E10C94C9
:100630005E32A8E1B0E0EFE1F3E00C944E32698362
:100640007A838B839C832D833E834F83588789E0F5
:10065000E82EF12CEC0EFD1ECE010196B7010E9492
:10066000D2048E010F5E1F4FCE010596B8010E9485
:10067000D2048985823040F08989823028F0C70110
:10068000B8010E944A0501C08FEF6896E6E00C941D
:100690006A32A8E1B0E0EFE4F3E00C944E326983F3
:1006A0007A838B839C832D833E834F83588789E095
:1006B000E82EF12CEC0EFD1ECE010196B7010E9432
:1006C000D2048E010F5E1F4FCE010596B8010E9425
:1006D000D2048985823040F08989823028F0C701B0
:1006E000B8010E944A0501C08FEF6896E6E00C94BD
:1006F0006A32A8E1B0E0EFE7F3E00C944E32698390
:100700007A838B839C832D833E834F83588789E034
:10071000E82EF12CEC0EFD1ECE010196B7010E94D1
:10072000D2048E010F5E1F4FCE010596B8010E94C4
:10073000D2048985823040F08989823028F0C7014F
:10074000B8010E944A0501C081E06896E6E00C9479
:100750006A32ACE0B0E0EFEAF3E00C945232698325
:100760007A838B839C83CE010196BE016B5F7F4FA2
:100770000E94D2048D81823061F1823050F1843048
:1007800021F48E81882351F12EC02F81388537FDC9
:1007900020C06E812F3131051CF06623F9F023C093
:1007A0008EE190E0821B930B29853A854B855C8511
:1007B00004C056954795379527958A95D2F76623B5
:1007C000B1F050954095309521953F4F4F4F5F4F79
:1007D0000EC020E030E040E050E009C02FEF3FEFD6
:1007E0004FEF5FE704C020E030E040E050E8B9019F
:1007F000CA012C96E2E00C946E32DF92EF92FF92E7
:100800000F931F93FC01E480F58006811781D1804E
:100810008081823048F480E090E0A0E1B0E0E82AF6
:10082000F92A0A2B1B2BA5C0843009F49FC0823003
:1008300021F4EE24FF24870105C0E114F104010531
:10084000110519F4E0E0F0E096C0628173819FEF3A
:10085000623879070CF05BC022E83FEF261B370BAC
:100860002A3131052CF020E030E040E050E02AC091
:10087000B801A701022E04C0769567955795479554
:100880000A94D2F781E090E0A0E0B0E004C0880FC5
:10089000991FAA1FBB1F2A95D2F70197A109B10979
:1008A0008E219F21A023B1230097A105B10521F03E
:1008B00081E090E0A0E0B0E09A01AB01282B392B59
:1008C0004A2B5B2BDA01C9018F779070A070B07052
:1008D00080349105A105B10539F427FF09C0205CDA
:1008E0003F4F4F4F5F4F04C0215C3F4F4F4F5F4F13
:1008F000E0E0F0E02030A0E03A07A0E04A07A0E402
:100900005A0710F0E1E0F0E079018A0127C0603871
:10091000710564F5FB01E158FF4FD801C7018F77DE
:100920009070A070B07080349105A105B10539F4C4
:10093000E7FE0DC080E490E0A0E0B0E004C08FE3EB
:1009400090E0A0E0B0E0E80EF91E0A1F1B1F17FFA1
:1009500005C016950795F794E794319687E01695AC
:100960000795F794E7948A95D1F705C0EE24FF2404
:100970008701EFEFF0E06E2F679566276795902F60
:100980009F77D794DD24D7948E2F8695492F462BB9
:10099000582F5D29B701CA011F910F91FF90EF9069
:1009A000DF900895FC01DB01408151812281622F9B
:1009B0006F7770E0221F2227221F9381892F880FD3
:1009C000822B282F30E0991F9927991F11969C930D
:1009D000119721153105A9F54115510561057105DD
:1009E00011F482E037C082E89FEF13969C938E93B8
:1009F00012979A01AB0167E0220F331F441F551F66
:100A00006A95D1F783E08C930DC0220F331F441FEA
:100A1000551F12968D919C911397019713969C9355
:100A20008E931297203080E0380780E0480780E4FA
:100A3000580758F314962D933D934D935C93179755
:100A400008952F3F310579F4411551056105710570
:100A500019F484E08C93089564FF03C081E08C93C3
:100A600012C01C9210C02F57304013963C932E9307
:100A7000129783E08C9387E0440F551F661F771F02
:100A80008A95D1F7706414964D935D936D937C9322
:100A9000179708951F93DC01FB019C91923008F495
:100AA00047C08081823008F443C0943051F41196DD
:100AB0001C91843099F58181682F70E0611B710968
:100AC0003FC0843021F0923031F48230B9F181811D
:100AD000882389F12DC011961C9111978230F1F075
:100AE00081811817D9F412962D913C911397828128
:100AF00093818217930794F028173907BCF0149656
:100B00008D919D910D90BC91A02D248135814681C0
:100B10005781281739074A075B0718F4112341F05A
:100B20000AC082179307A407B50740F4112319F0F0
:100B300061E070E005C06FEF7FEF02C060E070E041
:100B4000CB011F910895AF92BF92CF92DF92EF92A7
:100B5000FF920F93DF93CF930F92CDB7DEB78983C8
:100B60008AE062E040E00E9483129093F500809357
:100B7000F40087E296E020E630E0E4EFF0E0B9012F
:100B800045E550E09F010981EE24FF24CC24DD24BB
:100B9000AA24BB240E94A9198AEE95E028E630E039
:100BA000E4EFF0E0B90145E550E09F010981EE2452
:100BB000FF24CC24DD24AA24BB240E94A9190F9071
:100BC000CF91DF910F91FF90EF90DF90CF90BF908A
:100BD000AF900895DF93CF9300D000D000D0CDB771
:100BE000DEB79E838D831C821B821A82198227C0E6
:100BF000ED81FE81808191819E012D5F3F4FB90182
:100C000040E050E020E00E944E13813019F081E076
:100C10008A8312C08A81882351F40FB6F8940F9208
:100C20008091F3008F5F8093F3000F900FBE8B8154
:100C30009C8101969C838B8389818F5F89838981C5
:100C40008330B4F288EC90E00E94631BCFCFDF9337
:100C5000CF93CDB7DEB727970FB6F894DEBF0FBEA0
:100C6000CDBF9F838E831B821A8219822FC0EE8193
:100C7000FF81808191819E012C5F3F4FB90140E04F
:100C800050E020E00E945C14813001F52C813D8110
:100C90008A819B812817390739F081E089838C810B
:100CA0009D819B838A830DC08981882351F40FB66F
:100CB000F8940F928091F2008F5F8093F2000F9072
:100CC0000FBE8A819B8101969B838A83EE81FF817F
:100CD000808191810E94CD15882349F684EB90E0B4
:100CE0000E94631BF3CFDF93CF930F92CDB7DEB794
:100CF0008091F200882321F08091F300882311F481
:100D0000198202C081E089831092F2001092F300F0
:100D100089810F90CF91DF910895DF93CF93CDB765
:100D2000DEB727970FB6F894DEBF0FBECDBF9D8309
:100D30008C836E834F838AE190E00E94A50C9A8396
:100D4000898389819A81009709F46FC08091F600A8
:100D50009091F700009741F489819A819093F70070
:100D60008093F6000E94F4088E81823010F081E0BA
:100D70008E83E981FA81118E108EE981FA818E814C
:100D8000868BE981FA818F81878BE981FA818C8159
:100D90009D819183808389819A8102960E941D0E94
:100DA00089819A810C960E941D0EE981FA818981C0
:100DB0009A8191878087E981FA8189819A81938BD1
:100DC000828B8E81282F30E082E090E0821B930B93
:100DD000E981FA8195878487E981FA8196898091F2
:100DE000F800891728F4E981FA8186898093F80050
:100DF000E981FA818689282F30E0C901880F991F7F
:100E0000880F991F880F991F820F931FAC014150C3
:100E10005F4F89819A819C012E5F3F4FCA01B901C2
:100E20000E942D0E81E08B8302C08FEF8B838B811C
:100E300027960FB6F894DEBF0FBECDBFCF91DF91DE
:100E40000895DF93CF9300D000D000D0CDB7DEB7A8
:100E50009C838B837E836D832091F9003091FA000F
:100E60008B819C81820F931F9A8389838091F600E6
:100E70009091F70002960E94DD0EE091F600F0914D
:100E8000F70089819A81938382832091F9003091C0
:100E9000FA0089819A818217930770F48091250165
:100EA000909126012091F6003091F7002E5F3F4F80
:100EB000B9010E94710E0DC080912301909124010F
:100EC0002091F6003091F7002E5F3F4FB9010E944C
:100ED000710E8D819E81009761F08091F600909156
:100EE000F7009C01245F3F4F8D819E81B9010E94D4
:100EF000710E26960FB6F894DEBF0FBECDBFCF9110
:100F0000DF910895DF93CF9300D0CDB7DEB73AC01D
:100F1000F894E0912C01F0912D01868197819A83BC
:100F2000898389819A810C960E94DD0E789489814B
:100F30009A8102960E94DD0EE981FA81968980915C
:100F4000F800891728F4E981FA8186898093F800EE
:100F5000E981FA818689282F30E0C901880F991F1D
:100F6000880F991F880F991F820F931FAC01415062
:100F70005F4F89819A819C012E5F3F4FCA01B90161
:100F80000E942D0E80912701882309F0C1CF0F9078
:100F90000F90CF91DF910895DF93CF9300D000D0D1
:100FA000CDB7DEB70E946D1D2091FB003091FC0093
:100FB000821B930B9093FE008093FD0085C080916F
:100FC000F9009091FA0001969093FA008093F9004D
:100FD0008091FD009091FE0001979093FE00809318
:100FE000FD008091F9009091FA00009709F064C02B
:100FF00080912301909124019A8389838091250116
:1010000090912601909324018093230189819A81F4
:1010100090932601809325014FC0E0912301F09128
:1010200024010580F681E02D868197819C838B8346
:10103000EB81FC81228133818091F9009091FA004B
:101040008217930708F440C0F8948B819C81029624
:101050000E94DD0EEB81FC8184899589009729F03F
:101060008B819C810C960E94DD0E7894EB81FC8133
:1010700096898091F800891728F4EB81FC81868994
:101080008093F800EB81FC818689282F30E0C9012C
:10109000880F991F880F991F880F991F820F931F20
:1010A000AC0141505F4F8B819C819C012E5F3F4F73
:1010B000CA01B9010E942D0EE0912301F091240193
:1010C0008081882309F0A9CF8091FD009091FE00D6
:1010D000009709F074CF8091F9009091FA009093F5
:1010E000FC008093FB000F900F900F900F90CF911A
:1010F000DF910895DF93CF9300D0CDB7DEB70E9484
:1011000082070E94CC070AC08091F800882309F466
:1011100066C08091F80081508093F8008091F800BB
:10112000282F30E0C901880F991F880F991F880F59
:10113000991F820F931FFC01E150FF4F808188238C
:1011400019F38091F800282F30E0C901880F991F0A
:10115000880F991F880F991F820F931F81509F4FEF
:101160009A838983E981FA810180F281E02D82816D
:101170009381E981FA8192838183E981FA812181D6
:10118000328189819A8103962817390759F4E981B8
:10119000FA810180F281E02D82819381E981FA81D7
:1011A00092838183E981FA810180F281E02D868139
:1011B00097819093F7008093F600E091F600F0910C
:1011C000F700408151818091F6009091F700E09105
:1011D000F600F091F7002789622FFA0109950F9028
:1011E0000F90CF91DF910895DF93CF930F92CDB7FA
:1011F000DEB7198213C08981282F30E0C901880F1A
:10120000991F880F991F880F991F820F931F815074
:101210009F4F0E94F30D89818F5F8983898182307E
:1012200050F381E191E00E94F30D8AE191E00E9488
:10123000F30D87E291E00E94F30D81E191E090933C
:101240002401809323018AE191E090932601809309
:1012500025010F90CF91DF910895DF93CF9300D0B8
:1012600000D00F92CDB7DEB79D838C83EC81FD81DA
:101270000580F681E02D868197819B838A838A8110
:101280009B810C960E94DD0E8A819B819C01245FCC
:101290003F4F87E291E0B9010E942D0EEA81FB8168
:1012A0009689E091F600F091F7008689981718F07A
:1012B00081E0898301C0198289810F900F900F907E
:1012C0000F900F90CF91DF910895DF93CF9300D0CF
:1012D000CDB7DEB78BE090E00E94A50C9A8389839E
:1012E00089819A81009749F0E981FA8111821082FF
:1012F00089819A8102960E94F30D89819A810F90CB
:101300000F90CF91DF910895DF93CF93CDB7DEB7E4
:1013100060970FB6F894DEBF0FBECDBF9A8789875E
:101320007C876B875E874D87388B2F8789859A8569
:101330009C838B8319820E94D71CEB81FC81808166
:10134000918198878F8389859A852B853C85B90102
:101350000E94560B2F8138858B859C85282B392B35
:101360008D859E85282339238D859E8528173907ED
:10137000C9F42F8138858B859C85822B932B9E8386
:101380008D83EB81FC81208131818D859E858095C7
:10139000909582239323EB81FC8191838083188A2B
:1013A0001F861CC08F859889009791F08B819C8146
:1013B000BC016E5F7F4F8D859E859C0135604F859A
:1013C0005889CB01B9010E94271F1E821D8206C0C9
:1013D000EB81FC81808191819E838D830E94E31C3F
:1013E0008A838F859889009709F43AC08A81882377
:1013F00011F40E94E8100E94A3239E838D838D81A7
:101400009E8180709270009731F50FB6F8940F921C
:10141000EB81FC81808191819E838D832D813E8132
:101420008D859E85282339238D859E85281739072C
:1014300071F4EB81FC81208131818D859E858095C1
:10144000909582239323EB81FC81918380830F907D
:101450000FBE81E089838D819E8190709E838D83F4
:101460008D819E8160960FB6F894DEBF0FBECDBF12
:10147000CF91DF9108950F931F93DF93CF93CDB753
:10148000DEB763970FB6F894DEBF0FBECDBF9D8762
:101490008C877F876E87488B298B1B8B0A8B8C856B
:1014A0009D859B878A871F821E821B820E94D71C74
:1014B000EA85FB85808191819A83898389819A81DC
:1014C0002E853F85B90149890E94730C8D838D81DA
:1014D0008823C1F089819A81998788871B8A1A8A13
:1014E00088898823D9F1EA85FB85208131818E8521
:1014F0009F858095909582239323EA85FB85918330
:1015000080832CC08A899B89009729F489819A81DC
:101510009987888723C08889882329F08E819F81B5
:1015200091609F838E838989882329F08E819F8192
:1015300094609F838E838A859B85BC016E5F7F4FFD
:101540002E853F858E819F81282B392B4A895B8987
:10155000CB01B9010E94271F198618860E94E31C3F
:101560008C838A899B89009709F43BC08C818823EE
:1015700011F40E94E8100E94A32399878887888528
:10158000998580709270009739F50FB6F8940F9294
:10159000EA85FB85808191819987888788859985EF
:1015A0002E853F85B90149890E94730C882389F0F3
:1015B0008889882371F0EA85FB85208131818E85B9
:1015C0009F858095909582239323EA85FB8591835F
:1015D00080830F900FBE1B828885998590709987B4
:1015E00088878885998563960FB6F894DEBF0FBE0D
:1015F000CDBFCF91DF911F910F910895DF93CF93CE
:10160000CDB7DEB728970FB6F894DEBF0FBECDBFBB
:101610009E838D8378876F838D819E819C838B834E
:101620000FB6F8940F92EB81FC81808191819A83AF
:101630008983EB81FC81208131818F819885809520
:10164000909582239323EB81FC81918380830F907B
:101650000FBE89819A8128960FB6F894DEBF0FBE1F
:10166000CDBFCF91DF910895DF93CF93CDB7DEB794
:1016700027970FB6F894DEBF0FBECDBF9F838E8332
:101680008E819F819C838B831D82EB81FC81808175
:1016900091819A83898389819A8127960FB6F894DC
:1016A000DEBF0FBECDBFCF91DF910895DF93CF9303
:1016B000CDB7DEB765970FB6F894DEBF0FBECDBFCE
:1016C0009B8B8A8B7D8B6C8B198618868A899B896C
:1016D0009B838A8319828A819B8102969B878A8752
:1016E0008A859B8503969D878C870E94D71CEA85F7
:1016F000FB8585819681998B888BEA81FB8120818E
:1017000031818C899D89822B932BEA81FB81918386
:10171000808359C0E889F989828193819F878E8768
:10172000E889F989808191819F838E8319828E81D6
:101730009F8180709D838C838E819F8190709F8319
:101740008E838C819D8180709470009769F4EA810A
:10175000FB81208131818E819F8182239323009799
:1017600091F081E089830FC0EA81FB812081318182
:101770008E819F81282339238E819F8128173907E5
:1017800011F481E0898389818823C9F08C819D814E
:1017900080709170009741F0888599852E813F81F6
:1017A000822B932B99878887EA81FB8180819181A5
:1017B0009C01326088899989B9010E94D51F8E8564
:1017C0009F85998B888B288939898C859D852817D9
:1017D000390709F09FCFEA81FB812081318188851B
:1017E00099858095909582239323EA81FB8191834B
:1017F00080830E94E31CEA81FB8180819181659650
:101800000FB6F894DEBF0FBECDBFCF91DF91089524
:10181000DF93CF9300D000D000D0CDB7DEB79E834A
:101820008D838D819E819C838B838B819C8102968D
:101830009A8389830E94D71C08C0E981FA81858137
:10184000968160E072E00E94D51FE981FA81808173
:10185000882399F78B819C810E94FB0C0E94E31CDA
:1018600026960FB6F894DEBF0FBECDBFCF91DF91A5
:101870000895DF93CF9300D000D000D0CDB7DEB76E
:101880009A8389834B835C836D837E832B813C8128
:1018900089819A81B9010E94560B26960FB6F89459
:1018A000DEBF0FBECDBFCF91DF910895DF93CF9301
:1018B00000D000D000D0CDB7DEB79A8389834B83A8
:1018C0005C836D837E832B813C8189819A81B90100
:1018D0000E94FE0A26960FB6F894DEBF0FBECDBF5B
:1018E000CF91DF910895DF93CF9300D000D000D047
:1018F000CDB7DEB79B838A837D836C834E83198249
:101900008E81882359F48A819B812C813D81822399
:101910009323009781F081E089830DC02A813B8168
:101920008C819D81282339238C819D81281739073B
:1019300011F481E08983898126960FB6F894DEBF81
:101940000FBECDBFCF91DF910895DF93CF9300D02D
:1019500000D0CDB7DEB79C838B831A8219820E9498
:10196000D71C8091320190913301009731F485E3C7
:1019700091E09093330180933201809130019091F6
:1019800031012B813C81820F931F25E08B3D920713
:1019900038F520913001309131018B819C81280FE5
:1019A000391F809130019091310182179307C0F463
:1019B00020913201309133018091300190913101B9
:1019C000820F931F9A8389832091300130913101D6
:1019D0008B819C81820F931F909331018093300102
:1019E0000E94E31C89819A810F900F900F900F90B5
:1019F000CF91DF910895DF93CF9300D0CDB7DEB7BD
:101A00009A8389830F900F90CF91DF910895DF9390
:101A1000CF93CDB7DEB71092310110923001CF9144
:101A2000DF910895DF93CF93CDB7DEB720913001DA
:101A3000309131018BED95E0821B930BCF91DF91BB
:101A40000895AF92BF92CF92DF92EF92FF920F93E1
:101A5000DF93CF9300D00F92CDB7DEB78B831A827E
:101A600019821BC089819A81FC01E05FF84F8FE5E4
:101A70009DE020E730E0B90145E550E09F010B8192
:101A8000EE24FF24CC24DD24AA24BB240E94A9191F
:101A900089819A8101969A83898389819A8118160E
:101AA000190604F70F900F900F90CF91DF910F91CF
:101AB000FF90EF90DF90CF90BF90AF900895DF93AD
:101AC000CF93CDB7DEB72A970FB6F894DEBF0FBE1F
:101AD000CDBF9A8789871C821B8289859A859A83C4
:101AE00089838BE790E0A0E0B0E08D839E83AF8395
:101AF000B8878D819E81AF81B885895B9B46AC4F4D
:101B0000BF4F8D839E83AF83B8878D819E81AF81C8
:101B1000B8852DEF3FEF4FEF5FEFBC01CD010E9485
:101B2000D231DC01CB018D839E83AF83B8878D8159
:101B30009E81AF81B88527E030E040E050E0BC01F5
:101B4000CD010E940532DA01C9018D839E83AF83E6
:101B5000B8878D819E81AF81B8858B3127E7920749
:101B60002EEFA2072FEFB20721F081E090E09C83D7
:101B70008B838B819C81009709F0B3CF0FB6F894CB
:101B80000F92E981FA8181E080830F900FBEA9CF87
:101B9000DF93CF9300D00F92CDB7DEB781E08B8378
:101BA0001A82198214C089819A81FC01E05FF84F82
:101BB0008081882309F41B8289819A81FC01E05F7E
:101BC000F84F108289819A8101969A83898389814D
:101BD0009A81181619063CF78B810F900F900F9081
:101BE000CF91DF910895DF93CF9300D0CDB7DEB7CB
:101BF0009A83898389819A810396E981FA81928304
:101C00008183E981FA818FEF9FEF948383838981B8
:101C10009A810396E981FA819683858389819A81E5
:101C20000396E981FA8190878783E981FA8110829E
:101C30000F900F90CF91DF910895DF93CF9300D055
:101C4000CDB7DEB79A838983E981FA811186108640
:101C50000F900F90CF91DF910895DF93CF9300D035
:101C600000D000D0CDB7DEB79C838B837E836D839D
:101C7000EB81FC81818192819A838983ED81FE8150
:101C800089819A8193838283E981FA818481958114
:101C9000ED81FE8195838483E981FA810480F58159
:101CA000E02D8D819E8193838283E981FA818D81EC
:101CB0009E8195838483ED81FE818B819C819187B8
:101CC0008087EB81FC8180818F5FEB81FC81808349
:101CD00026960FB6F894DEBF0FBECDBFCF91DF9131
:101CE0000895DF93CF93CDB7DEB728970FB6F8945A
:101CF000DEBF0FBECDBF9E838D8378876F83EF815C
:101D0000F885808191819A83898389819A812FEFD7
:101D10008F3F920739F4ED81FE81878190859C8306
:101D20008B8318C08D819E8103969C838B8306C014
:101D3000EB81FC81828193819C838B83EB81FC818D
:101D40000280F381E02D2081318189819A8182177F
:101D5000930770F7EB81FC8182819381EF81F88595
:101D600093838283EF81F8850280F381E02D8F8158
:101D7000988595838483EF81F8858B819C819583F9
:101D80008483EB81FC818F81988593838283EF81AB
:101D9000F8858D819E8191878087ED81FE8180818C
:101DA0008F5FED81FE81808328960FB6F894DEBFA9
:101DB0000FBECDBFCF91DF910895DF93CF9300D0B9
:101DC00000D0CDB7DEB79C838B83EB81FC8180850F
:101DD00091859A838983EB81FC81A281B381EB8118
:101DE000FC818481958115969C938E931497EB8149
:101DF000FC81A481B581EB81FC8182819381139662
:101E00009C938E931297E981FA81218132818B8193
:101E10009C812817390741F4EB81FC8184819581ED
:101E2000E981FA8192838183EB81FC81118610869E
:101E3000E981FA8180818150E981FA818083E98199
:101E4000FA8180810F900F900F900F90CF91DF91CA
:101E50000895DF93CF93CDB7DEB728970FB6F894E8
:101E6000DEBF0FBECDBF9C838B837E836D8358877F
:101E70004F83EB81FC8181E180838B819C81019781
:101E80009C838B83EB81FC8182E280838B819C81AC
:101E900001979C838B83EB81FC8183E380838B811F
:101EA0009C8101979C838B838D819E819A838983FA
:101EB0008981EB81FC8180838B819C8101979C834C
:101EC0008B8389819A81892F99279A838983898134
:101ED000EB81FC8180838B819C8101979C838B8328
:101EE000EB81FC8110828B819C8101979C838B8389
:101EF000EB81FC8180E880838B819C8101979C83AE
:101F00008B83EB81FC8110828B819C8101979C8368
:101F10008B83EB81FC8182E080838B819C810197A4
:101F20009C838B83EB81FC8183E080838B819C810C
:101F300001979C838B83EB81FC8184E080838B8180
:101F40009C8101979C838B83EB81FC8185E080835E
:101F50008B819C8101979C838B83EB81FC8186E044
:101F600080838B819C8101979C838B83EB81FC8197
:101F700087E080838B819C8101979C838B83EB819D
:101F8000FC8188E080838B819C8101979C838B837B
:101F9000EB81FC8189E080838B819C8101979C830C
:101FA0008B83EB81FC8180E180838B819C81019715
:101FB0009C838B83EB81FC8181E180838B819C817D
:101FC00001979C838B83EB81FC8182E180838B81F1
:101FD0009C8101979C838B83EB81FC8183E18083CF
:101FE0008B819C8101979C838B83EB81FC8184E1B5
:101FF00080838B819C8101979C838B83EB81FC8107
:1020000085E180838B819C8101979C838B83EB810D
:10201000FC8186E180838B819C8101979C838B83EB
:10202000EB81FC8187E180838B819C8101979C837C
:102030008B83EB81FC8188E180838B819C8101977C
:102040009C838B83EB81FC8189E180838B819C81E4
:1020500001979C838B83EB81FC8180E280838B8161
:102060009C8101979C838B83EB81FC8181E280833F
:102070008B819C8101979C838B83EB81FC8182E225
:1020800080838B819C8101979C838B83EB81FC8176
:1020900083E280838B819C8101979C838B838F81DA
:1020A00098859A8389838981EB81FC8180838B81E8
:1020B0009C8101979C838B8389819A81892F9927A1
:1020C0009A8389838981EB81FC8180838B819C81C8
:1020D00001979C838B83EB81FC8186E280838B81DB
:1020E0009C8101979C838B83EB81FC8187E28083B9
:1020F0008B819C8101979C838B83EB81FC8188E29F
:1021000080838B819C8101979C838B83EB81FC81F5
:1021100089E280838B819C8101979C838B83EB81F7
:10212000FC8180E380838B819C8101979C838B83DE
:10213000EB81FC8181E380838B819C8101979C836F
:102140008B838B819C8128960FB6F894DEBF0FBEDF
:10215000CDBFCF91DF910895DF93CF93CDB7DEB799
:102160000E949E11A0911107B0911207CD91CDBF91
:10217000DD91DEBFFF91EF91DF91CF91BF91AF91E4
:102180009F918F917F916F915F914F913F912F918F
:102190001F910F91FF90EF90DF90CF90BF90AF9085
:1021A0009F908F907F906F905F904F903F902F9077
:1021B0001F900F900FBE0F90089581E0CF91DF9197
:1021C0000895DF93CF93CDB7DEB7CF91DF91089518
:1021D0000F920FB6F8940F921F9211242F923F92F4
:1021E0004F925F926F927F928F929F92AF92BF9227
:1021F000CF92DF92EF92FF920F931F932F933F9313
:102200004F935F936F937F938F939F93AF93BF93FE
:10221000CF93DF93EF93FF93A0911107B091120733
:102220000DB60D920EB60D920E94891EA091110757
:10223000B0911207CD91CDBFDD91DEBFFF91EF913F
:10224000DF91CF91BF91AF919F918F917F916F91CE
:102250005F914F913F912F911F910F91FF90EF90C0
:10226000DF90CF90BF90AF909F908F907F906F90B6
:102270005F904F903F902F901F900F900FBE0F9048
:1022800008950F920FB6F8940F921F9211242F9277
:102290003F924F925F926F927F928F929F92AF92F6
:1022A000BF92CF92DF92EF92FF920F931F932F93E3
:1022B0003F934F935F936F937F938F939F93AF93CE
:1022C000BF93CF93DF93EF93FF93A0911107B0914A
:1022D00012070DB60D920EB60D920E94A21D882314
:1022E00011F00E94891EA0911107B0911207CD91A3
:1022F000CDBFDD91DEBFFF91EF91DF91CF91BF9117
:10230000AF919F918F917F916F915F914F913F918D
:102310002F911F910F91FF90EF90DF90CF90BF9082
:10232000AF909F908F907F906F905F904F903F9075
:102330002F901F900F900FBE0F900895DF93CF93B3
:1023400000D000D000D0CDB7DEB780E49FE1A0E0A0
:10235000B0E08B839C83AD83BE838B819C81AD81F8
:10236000BE81689415F8B695A795979587951694AC
:10237000D1F78B839C83AD83BE838B819C81AD81A0
:10238000BE810197A109B1098B839C83AD83BE8374
:102390008B8189838B819C81AD81BE81892F9A2F0E
:1023A000AB2FBB278B839C83AD83BE838B818A83BA
:1023B000EBE4F0E08A818083EAE4F0E089818083C5
:1023C0008BE08983EEE4F0E089818083E9E5F0E049
:1023D00080818983898180618983E9E5F0E0898151
:1023E000808326960FB6F894DEBF0FBECDBFCF9187
:1023F000DF9108950E9441111895DF93CF9300D08B
:1024000000D00F92CDB7DEB79C838B836D838B8119
:102410009C819A8389830FB6F8940F92E981FA819F
:1024200040815181E981FA81838D282F30E0E98153
:10243000FA81848D882F90E0BC01269FC001279FE0
:10244000900D369F900D1124840F951FE981FA811C
:1024500093838283E981FA81128EE981FA818081F6
:102460009181E981FA8195838483E981FA814081B0
:102470005181E981FA81838D882F90E09C01215060
:102480003040E981FA81848D882F90E0BC01269F3D
:10249000C001279F900D369F900D1124840F951F2A
:1024A000E981FA8197838683E981FA818FEF858FAD
:1024B000E981FA818FEF868F8D81882379F4E98114
:1024C000FA8180858823A1F089819A8108960E94EB
:1024D0006A1F813069F40E94E8100AC089819A81DC
:1024E00008960E94F30D89819A8141960E94F30D0E
:1024F0000F900FBE81E00F900F900F900F900F90F4
:10250000CF91DF910895DF93CF93CDB7DEB72997B1
:102510000FB6F894DEBF0FBECDBF8F8368874987A3
:102520001A8219828F81882309F43FC08FE190E0DD
:102530000E94A50C9E838D838D819E810097A9F1B9
:102540008F81282F30E08885882F90E0AC01249F70
:10255000C001259F900D349F900D112401969C83FE
:102560008B838B819C810E94A50CED81FE819183E0
:102570008083ED81FE8180819181009791F0ED81D2
:10258000FE818F81838FED81FE818885848F8D818F
:102590009E8161E00E94FD118D819E819A838983D5
:1025A00004C08D819E810E94FB0C89819A812996AD
:1025B0000FB6F894DEBF0FBECDBFCF91DF91089567
:1025C000DF93CF9300D00F92CDB7DEB78B838FE12F
:1025D00090E00E94A50C9A83898389819A81009753
:1025E000A9F1E981FA8113821282E981FA811182CB
:1025F0001082E981FA8115821482E981FA811782B9
:102600001682E981FA81128EE981FA8181E0838F55
:10261000E981FA81148EE981FA818FEF858FE98152
:10262000FA818FEF868F89819A8108960E94F30D37
:1026300089819A8141960E94F30D89819A8160E097
:1026400070E040E050E020E00E944E1389819A81C2
:102650000F900F900F90CF91DF910895DF93CF935C
:1026600000D000D0CDB7DEB78B836C838B8160E068
:1026700042E00E9483129A83898389819A8100971C
:1026800021F0E981FA818C81828F89819A810F9072
:102690000F900F900F90CF91DF910895DF93CF931C
:1026A000CDB7DEB72F970FB6F894DEBF0FBECDBF04
:1026B000998788877B876A875D874C872E871C82EE
:1026C000888599859A8389830FB6F8940F92E9815A
:1026D000FA81928DE981FA81838D981718F08E85A1
:1026E000823011F589819A812A853B85B9014E8511
:1026F0000E9440168B83E981FA818189882351F0F9
:1027000089819A8141960E946A1F813041F40E941A
:10271000E81005C08B81882311F00E94E8100F900B
:102720000FBE81E08F875CC08C859D85009721F46A
:102730000F900FBE1F8654C08C81882331F4CE01C8
:1027400005960E943A2081E08C830F900FBE0E9474
:10275000D71C0FB6F8940F92E981FA81858D8F3FCF
:1027600019F4E981FA81158EE981FA81868D8F3F0E
:1027700019F4E981FA81168E0F900FBECE010596ED
:102780009E01245F3F4FB9010E945320882309F521
:1027900089819A810E94C9178823A1F089819A8131
:1027A00008962C853D85B9010E94F21E89819A8187
:1027B0000E9440170E94E31C882309F085CF0E94E5
:1027C000E81082CF89819A810E9440170E94E31C01
:1027D0007BCF89819A810E9440170E94E31C1F864B
:1027E0008F852F960FB6F894DEBF0FBECDBFCF9169
:1027F000DF910895DF93CF93CDB7DEB72B970FB658
:10280000F894DEBF0FBECDBF9E838D8378876F8324
:102810005A8749872B878D819E819A8389831B8262
:10282000E981FA81928DE981FA81838D981718F0F8
:102830008B858230B1F589819A812F813885B901E4
:102840004B850E944016882341F089859A85009720
:1028500021F0E985FA8581E08083E981FA81868D1E
:102860008F3FA9F4E981FA8181898823B9F08981B0
:102870009A8141960E946A1F882381F089859A85F2
:10288000009761F0E985FA8581E0808307C0E981DE
:10289000FA81868D8F5FE981FA81868F81E08C8352
:1028A00001C01C828C812B960FB6F894DEBF0FBE40
:1028B000CDBFCF91DF910895DF93CF93CDB7DEB732
:1028C00060970FB6F894DEBF0FBECDBF9A87898799
:1028D0007C876B875E874D872F871D8289859A85C8
:1028E0009A8389830FB6F8940F92E981FA81828DD9
:1028F000882309F44BC0E981FA81868197819C8302
:102900008B8389819A812B853C85B9010E94F916B8
:102910008F85882311F5E981FA81828D8150E981C3
:10292000FA81828FE981FA8180819181009731F467
:102930000E94CA23E981FA8193838283E981FA8123
:1029400080858823F1F089819A8108960E946A1F08
:102950008130B9F40E94E81014C0E981FA818B81BA
:102960009C8197838683E981FA818189882349F054
:1029700089819A8141960E946A1F882311F00E94E2
:10298000E8100F900FBE81E0888B6DC08D859E850D
:10299000009721F40F900FBE188A65C08D8188239F
:1029A00031F4CE0106960E943A2081E08D830F908B
:1029B0000FBE0E94D71C0FB6F8940F92E981FA81DE
:1029C000858D8F3F19F4E981FA81158EE981FA81AD
:1029D000868D8F3F19F4E981FA81168E0F900FBE14
:1029E000CE0106969E01235F3F4FB9010E945320FE
:1029F000882391F589819A810E949417882329F16F
:102A0000E981FA8180819181009759F40FB6F89499
:102A10000F92E981FA81828193810E94A6220F9010
:102A20000FBE89819A8141962D853E85B9010E940C
:102A3000F21E89819A810E9440170E94E31C88231C
:102A400009F050CF0E94E8104DCF89819A810E94F1
:102A500040170E94E31C46CF89819A810E9440174B
:102A60000E94E31C188A888960960FB6F894DEBF2E
:102A70000FBECDBFCF91DF910895DF93CF93CDB738
:102A8000DEB72A970FB6F894DEBF0FBECDBF9E8388
:102A90008D8378876F835A8749878D819E819A833A
:102AA00089831B82E981FA81828D882391F1898152
:102AB0009A812F813885B9010E94F916E981FA813E
:102AC000828D8150E981FA81828FE981FA81858D39
:102AD0008F3FA9F4E981FA8180858823B9F0898143
:102AE0009A8108960E946A1F882381F089859A85B9
:102AF000009761F0E985FA8581E0808307C0E9816C
:102B0000FA81858D8F5FE981FA81858F81E08C83E1
:102B100001C01C828C812A960FB6F894DEBF0FBECE
:102B2000CDBFCF91DF910895DF93CF93CDB7DEB7BF
:102B30002A970FB6F894DEBF0FBECDBF98878F835C
:102B40007A8769878F8198859A8389831D82E98135
:102B5000FA81828D8823B1F0E981FA81868197819B
:102B60009C838B8389819A8129853A85B9010E944A
:102B7000F916E981FA818B819C819783868381E0B4
:102B80008E8301C01E828E812A960FB6F894DEBF16
:102B90000FBECDBFCF91DF910895DF93CF9300D0CB
:102BA0000F92CDB7DEB79B838A830FB6F8940F924E
:102BB000EA81FB81828D89830F900FBE89810F90FE
:102BC0000F900F90CF91DF910895DF93CF9300D0B6
:102BD00000D00F92CDB7DEB79D838C838C819D8111
:102BE0009A8389830FB6F8940F92E981FA81938DC5
:102BF000E981FA81828D292F281B822F8B830F90E8
:102C00000FBE8B810F900F900F900F900F90CF9170
:102C1000DF910895DF93CF9300D00F92CDB7DEB749
:102C20009B838A83EA81FB81828D898389810F90CE
:102C30000F900F90CF91DF910895DF93CF9300D045
:102C400000D0CDB7DEB79C838B838B819C819A8328
:102C50008983E981FA8180819181009731F0E9814E
:102C6000FA81808191810E94FB0C89819A810E9466
:102C7000FB0C0F900F900F900F90CF91DF91089564
:102C8000DF93CF9300D000D000D0CDB7DEB79B83C9
:102C90008A837D836C834E831982EA81FB81848DD4
:102CA000882399F4EA81FB8180819181009709F062
:102CB0008FC0EA81FB81828193810E9431238983C5
:102CC000EA81FB811382128283C08E81882399F569
:102CD000EA81FB8164817581EA81FB81848D482FC3
:102CE00050E02C813D81CB01B9010E947932EA810B
:102CF000FB8124813581EA81FB81848D882F90E0DE
:102D0000820F931FEA81FB8195838483EA81FB8193
:102D100024813581EA81FB818281938128173907DB
:102D200008F456C0EA81FB8180819181EA81FB81B0
:102D3000958384834DC0EA81FB8166817781EA8136
:102D4000FB81848D482F50E02C813D81CB01B9015E
:102D50000E947932EA81FB8126813781EA81FB81F9
:102D6000848D882F90E0909581959F4F820F931FBF
:102D7000EA81FB8197838683EA81FB812681378103
:102D8000EA81FB81808191812817390790F4EA81DB
:102D9000FB8122813381EA81FB81848D882F90E041
:102DA000909581959F4F820F931FEA81FB819783B6
:102DB00086838E81823061F4EA81FB81828D882353
:102DC00039F0EA81FB81828D8150EA81FB81828F1B
:102DD000EA81FB81828D8F5FEA81FB81828F89810D
:102DE00026960FB6F894DEBF0FBECDBFCF91DF9110
:102DF0000895DF93CF9300D000D0CDB7DEB79A838C
:102E000089837C836B83E981FA81848D882389F1AE
:102E1000E981FA8126813781E981FA81848D882FC1
:102E200090E0820F931FE981FA8197838683E9817D
:102E3000FA8126813781E981FA818281938128177D
:102E4000390740F0E981FA8180819181E981FA8135
:102E500097838683E981FA8146815781E981FA81E6
:102E6000848D282F30E08B819C81BA01A9010E94BA
:102E700079320F900F900F900F90CF91DF910895BE
:102E8000DF93CF9300D0CDB7DEB79A8389830FB697
:102E9000F8940F9215C0E981FA8181898823A9F0FD
:102EA00089819A8141960E946A1F882311F00E94AD
:102EB000B620E981FA81868D8150E981FA81868F79
:102EC000E981FA81868D181634F3E981FA818FEF52
:102ED000868F0F900FBE0FB6F8940F9215C0E98140
:102EE000FA8180858823A9F089819A8108960E94B9
:102EF0006A1F882311F00E94B620E981FA81858D2E
:102F00008150E981FA81858FE981FA81858D1816D2
:102F100034F3E981FA818FEF858F0F900FBE0F9008
:102F20000F90CF91DF910895DF93CF9300D00F9250
:102F3000CDB7DEB79B838A830FB6F8940F92EA81F0
:102F4000FB81828D882319F481E0898301C0198275
:102F50000F900FBE89810F900F900F90CF91DF914E
:102F60000895DF93CF9300D00F92CDB7DEB79B8348
:102F70008A83EA81FB81828D882319F481E0898329
:102F800001C0198289810F900F900F90CF91DF912E
:102F90000895DF93CF9300D00F92CDB7DEB79B8318
:102FA0008A830FB6F8940F92EA81FB81928DEA81B1
:102FB000FB81838D981719F481E0898301C0198200
:102FC0000F900FBE89810F900F900F90CF91DF91DE
:102FD0000895DF93CF9300D00F92CDB7DEB79B83D8
:102FE0008A83EA81FB81928DEA81FB81838D981728
:102FF00019F481E0898301C0198289810F900F90B3
:103000000F90CF91DF910895DF93CF93CDB7DEB7C7
:103010002A970FB6F894DEBF0FBECDBF9D838C8379
:103020007F836E83598748878C819D819A838983AA
:10303000F89489819A810E94C9178823A9F088850C
:103040009985009771F089819A819C01285F3F4F93
:1030500088859985B9010E94210778948CEF8A8729
:103060002AC078941A8627C07894F894E981FA8166
:10307000928DE981FA81838D9817C8F489819A81AC
:103080002E813F81B90140E00E94401681E08B8390
:10309000E981FA818189882359F089819A81419651
:1030A0000E942D09882321F08BEF8B8301C01B82A6
:1030B00078948B818A878A852A960FB6F894DEBF2A
:1030C0000FBECDBFCF91DF910895DF93CF93CDB7E2
:1030D000DEB72A970FB6F894DEBF0FBECDBF9D8333
:1030E0008C837F836E83598748878C819D819A83E7
:1030F0008983F894E981FA81828D8823A9F48885EF
:103100009985009771F089819A819C012F5E3F4FCC
:1031100088859985B9010E94210778948CEF8A8768
:1031200058C078941A8655C07894F894E981FA8149
:10313000828D882309F449C0E981FA81268137818B
:10314000E981FA81848D882F90E0820F931FE981B5
:10315000FA8197838683E981FA8126813781E98123
:10316000FA81828193812817390740F0E981FA8139
:1031700080819181E981FA8197838683E981FA814F
:10318000828D8150E981FA81828FE981FA814681BD
:103190005781E981FA81848D282F30E08E819F81CB
:1031A000BA01A9010E94793281E08B83E981FA8119
:1031B0008085882359F089819A8108960E942D097B
:1031C000882321F08BEF8B8301C01B8278948B8145
:1031D0008A878A852A960FB6F894DEBF0FBECDBFC8
:1031E000CF91DF910895DF93CF93CDB7DEB72897C6
:1031F0000FB6F894DEBF0FBECDBF9C838B837E835A
:103200006D834F838B819C819A838983E981FA81C5
:10321000928DE981FA81838D9817D0F489819A8102
:103220002D813E81B90140E00E9440168F818823A4
:1032300079F4E981FA818189882351F089819A8121
:1032400041960E942D09882319F081E0888702C0E9
:103250008F818887888528960FB6F894DEBF0FBEC9
:10326000CDBFCF91DF910895DF93CF93CDB7DEB778
:1032700029970FB6F894DEBF0FBECDBF9D838C8318
:103280007F836E83598748878C819D819A83898348
:10329000E981FA81828D882309F450C0E981FA819D
:1032A00026813781E981FA81848D882F90E0820F11
:1032B000931FE981FA8197838683E981FA812681C8
:1032C0003781E981FA81828193812817390740F09B
:1032D000E981FA8180819181E981FA8197838683EE
:1032E000E981FA81828D8150E981FA81828FE981B9
:1032F000FA8146815781E981FA81848D282F30E057
:103300008E819F81BA01A9010E947932E885F985F1
:103310008081882381F4E981FA818085882359F0AE
:1033200089819A8108960E942D09882321F0E885D9
:10333000F98581E0808381E08B8301C01B828B81D2
:1033400029960FB6F894DEBF0FBECDBFCF91DF91A7
:103350000895AF92BF92CF92DF92EF92FF920F93B8
:103360001F93DF93CF93CDB7DEB764970FB6F89472
:10337000DEBF0FBECDBF9F838E83798768875B8753
:103380004A873D872C870E87F88AEF86DA8AC98AB2
:10339000BC8AAB8A8A859B8529893A89B9010E94B2
:1033A0000F229C838B838B819C81009709F48DC0B5
:1033B000EB81FC812789308D8A859B850197820F5F
:1033C000931F9A8389838B819C8128853985EB891A
:1033D000FC89AA85BB85B9014E859F018D010E949C
:1033E000D02089819A812E813F814C855D85B901EC
:1033F0000E94290FEB81FC81918380838F859889BE
:10340000009731F0EF85F8898B819C8191838083CF
:103410000FB6F8940F92809114078F5F8093140772
:103420008091110790911207009769F48B819C811C
:103430009093120780931107809114078130A9F4AB
:103440000E944A2112C080911807882371F4E091EC
:103450001107F091120796898E85891730F08B81BC
:103460009C81909312078093110780911C078F5FB6
:1034700080931C07EB81FC8196898091170789173F
:1034800028F4EB81FC81868980931707EB81FC810E
:103490008689282F30E0C901880F991F880F991F4E
:1034A000880F991F820F931FAC01425E584F8B818A
:1034B0009C819C012E5F3F4FCA01B9010E942D0ED5
:1034C00081E08D830F900FBE02C08FEF8D838D81C1
:1034D000813071F480911807882351F0E091110731
:1034E000F091120796898E85981710F40E94E810C3
:1034F0008D8164960FB6F894DEBF0FBECDBFCF911D
:10350000DF911F910F91FF90EF90DF90CF90BF90D0
:10351000AF900895DF93CF9300D000D000D0CDB707
:10352000DEB79C838B830FB6F8940F928B819C81BE
:10353000009739F480911107909112079E838D8333
:1035400004C08B819C819E838D838D819E819A8313
:10355000898389819A8102960E94DD0EE981FA8130
:1035600084899589009729F089819A810C960E9417
:10357000DD0E89819A819C012E5F3F4F83E797E0A2
:10358000B9010E942D0E809113078F5F809313075E
:1035900080911C078F5F80931C070F900FBE809156
:1035A0001807882399F0209111073091120789811B
:1035B0009A818217930719F40E94E81007C00FB68A
:1035C000F8940F920E9469220F900FBE26960FB6B4
:1035D000F894DEBF0FBECDBFCF91DF910895DF938A
:1035E000CF93CDB7DEB72A970FB6F894DEBF0FBEE4
:1035F000CDBF98878F837A8769871B820E94D71CEB
:1036000080911507909116079A838983EF81F88539
:103610002081318189859A85820F931F9E838D83B6
:10362000EF81F8852081318189819A818217930702
:1036300098F4EF81F885208131818D819E818217F8
:103640009307E0F42D813E8189819A818217930747
:10365000A8F481E08B8312C0EF81F885208131814D
:103660008D819E818217930738F02D813E8189815B
:103670009A818217930710F481E08B83EF81F8859C
:103680008D819E81918380838B81882359F08091E5
:1036900011079091120702960E94DD0E8D819E8186
:1036A0000E94C6210E94E31C8C838C81882311F424
:1036B0000E94E8102A960FB6F894DEBF0FBECDBF69
:1036C000CF91DF910895DF93CF9300D000D00F9278
:1036D000CDB7DEB79D838C8319828C819D81009745
:1036E000D1F00E94D71C20911507309116078C81CC
:1036F0009D81820F931F9B838A83809111079091F4
:10370000120702960E94DD0E8A819B810E94C621CB
:103710000E94E31C89838981882311F40E94E810A8
:103720000F900F900F900F900F90CF91DF91089511
:10373000DF93CF93CDB7DEB727970FB6F894DEBFF0
:103740000FBECDBF9D838C830FB6F8940F928C81F2
:103750009D81009739F480911107909112079F8302
:103760008E8304C08C819D819F838E838E819F81F7
:103770009B838A83EA81FB81868989830F900FBEB0
:10378000898127960FB6F894DEBF0FBECDBFCF91CB
:10379000DF910895DF93CF93CDB7DEB72A970FB6A9
:1037A000F894DEBF0FBECDBF9F838E8368871982DA
:1037B0008885863010F085E088870FB6F8940F92E0
:1037C0008E819F81009739F48091110790911207A3
:1037D0009A87898704C08E819F819A878987898586
:1037E0009A859D838C83EC81FD8185A58B839B814C
:1037F0008885981709F48DC098858B818917A0F466
:1038000020911107309112078C819D8182179307B7
:10381000B1F0E0911107F091120796898885891718
:1038200070F081E089830BC020911107309112075D
:103830008C819D818217930711F481E08983EC814B
:10384000FD8186898A83EC81FD8195A5EC81FD81CE
:103850008689981721F4EC81FD818885868BEC811F
:10386000FD81888585A7EC81FD81848595859923D7
:103870005CF08885282F30E086E090E0821B930B77
:10388000EC81FD8195878487EC81FD81428553859C
:103890008A81282F30E0C901880F991F880F991F4E
:1038A000880F991F820F931F825E984F4817590700
:1038B00059F58C819D8102960E94DD0EEC81FD817F
:1038C000968980911707891728F4EC81FD818689F4
:1038D00080931707EC81FD818689282F30E0C9018C
:1038E000880F991F880F991F880F991F820F931FA8
:1038F000AC01425E584F8C819D819C012E5F3F4FF1
:10390000CA01B9010E942D0E8981813011F40E94F3
:10391000E8100F900FBE2A960FB6F894DEBF0FBEC8
:10392000CDBFCF91DF910895AF92BF92CF92DF923A
:10393000EF92FF920F93DF93CF930F92CDB7DEB745
:1039400080EC90E228E730E0B90145E550E020E066
:1039500030E000E0EE24FF24CC24DD24AA24BB24A4
:103960000E94A91989838981813051F4F89481E0FA
:103970008093180710921607109215070E94AC103A
:103980000F90CF91DF910F91FF90EF90DF90CF904C
:10399000BF90AF900895DF93CF93CDB7DEB7F89483
:1039A000109218070E94E110CF91DF910895DF93E4
:1039B000CF93CDB7DEB780911D078F5F80931D0732
:1039C000CF91DF910895DF93CF9300D00F92CDB7C1
:1039D000DEB719820FB6F8940F9280911D078150BF
:1039E00080931D0780911D07882309F06DC0809189
:1039F0001407882309F468C045C0E0916F07F0916F
:103A00007007868197819B838A838A819B810C962C
:103A10000E94DD0E8A819B8102960E94DD0EEA8162
:103A2000FB81968980911707891728F4EA81FB8129
:103A3000868980931707EA81FB818689282F30E0E9
:103A4000C901880F991F880F991F880F991F820F2E
:103A5000931FAC01425E584F8A819B819C012E5F6F
:103A60003F4FCA01B9010E942D0EEA81FB81968960
:103A7000E0911107F09112078689981718F081E0FC
:103A800080931A0780916A07882309F0B6CF809146
:103A90001907882389F00CC00E94A21D882319F001
:103AA00081E080931A07809119078150809319074C
:103AB00080911907882381F780911A07813021F4BA
:103AC00081E089830E94E8100F900FBE89810F90DA
:103AD0000F900F90CF91DF910895DF93CF9300D097
:103AE000CDB7DEB70FB6F8940F928091150790917D
:103AF00016079A8389830F900FBE89819A810F9050
:103B00000F90CF91DF910895DF93CF9300D00F9264
:103B1000CDB7DEB7198280911507909116079B8368
:103B20008A838A819B810F900F900F90CF91DF91B4
:103B30000895DF93CF93CDB7DEB780911407CF916F
:103B4000DF910895DF93CF93CDB7DEB729970FB6F6
:103B5000F894DEBF0FBECDBF1D8280911D07882364
:103B600009F0C2C0809115079091160701969093B5
:103B700016078093150780911507909116079C836F
:103B80008B838B819C810097D9F4809166079091FB
:103B900067079A838983809168079091690790935A
:103BA00067078093660789819A819093690780935C
:103BB000680780911B078F5F80931B070E94692213
:103BC0002091ED003091EE008B819C81821793074C
:103BD00008F471C0E0916607F0916707808188233F
:103BE00039F48FEF9FEF9093EE008093ED0063C068
:103BF000E0916607F09167070580F681E02D8681E8
:103C0000978199878887E885F985828193819F8349
:103C10008E832B813C818E819F812817390738F450
:103C20008E819F819093EE008093ED0044C0888543
:103C3000998502960E94DD0EE885F985848995892B
:103C4000009729F0888599850C960E94DD0EE885FD
:103C5000F985968980911707891728F4E885F985F1
:103C6000868980931707E885F9858689282F30E0B3
:103C7000C901880F991F880F991F880F991F820FFC
:103C8000931FAC01425E584F888599859C012E5F39
:103C90003F4FCA01B9010E942D0EE885F98596892A
:103CA000E0911107F09112078689981708F492CFD6
:103CB00081E08D838FCFE0911107F0911207868903
:103CC000282F30E0C901880F991F880F991F880F8E
:103CD000991F820F931FFC01E25EF84F80818230B2
:103CE00040F081E08D8305C0809119078F5F80933C
:103CF000190780911A07882311F081E08D838D8147
:103D000029960FB6F894DEBF0FBECDBFCF91DF91DD
:103D10000895DF93CF9300D0CDB7DEB780911D0714
:103D2000882321F081E080931A0757C010921A0768
:103D300005C080911707815080931707809117075E
:103D4000282F30E0C901880F991F880F991F880F0D
:103D5000991F820F931FFC01E25EF84F8081882338
:103D600041F380911707282F30E0C901880F991F70
:103D7000880F991F880F991F820F931F825E984F9B
:103D80009A838983E981FA810180F281E02D828121
:103D90009381E981FA8192838183E981FA8121818A
:103DA000328189819A8103962817390759F4E9816C
:103DB000FA810180F281E02D82819381E981FA818B
:103DC00092838183E981FA810180F281E02D8681ED
:103DD000978190931207809311070F900F90CF91C6
:103DE000DF910895DF93CF9300D000D000D0CDB7FE
:103DF000DEB79C838B837E836D83809111079091C6
:103E000012079C01245F3F4F8B819C81B9010E9466
:103E1000710E809111079091120702960E94DD0E9B
:103E200020911507309116078D819E81820F931F77
:103E30009A83898389819A810E94C62126960FB62A
:103E4000F894DEBF0FBECDBFCF91DF910895DF9311
:103E5000CF93CDB7DEB728970FB6F894DEBF0FBE6D
:103E6000CDBF9C838B837E836D8358874F83E09186
:103E70001107F09112078D819E8190689587848744
:103E800080911107909112079C01245F3F4F8B8115
:103E90009C81B9010E942D0E80911107909112070B
:103EA00002960E94DD0E20911507309116078F8132
:103EB0009885820F931F9A83898389819A810E94B2
:103EC000C62128960FB6F894DEBF0FBECDBFCF91A6
:103ED000DF910895DF93CF9300D000D00F92CDB73C
:103EE000DEB79D838C83EC81FD810580F681E02D1A
:103EF000868197819B838A838A819B810C960E940D
:103F0000DD0E80911D07882361F58A819B810296D1
:103F10000E94DD0EEA81FB8196898091170789173F
:103F200028F4EA81FB81868980931707EA81FB8167
:103F30008689282F30E0C901880F991F880F991FA3
:103F4000880F991F820F931FAC01425E584F8A81E0
:103F50009B819C012E5F3F4FCA01B9010E942D0E2B
:103F60000AC08A819B819C01245F3F4F8AE697E0CB
:103F7000B9010E942D0EEA81FB819689E09111071B
:103F8000F09112078689891730F481E0898381E0F6
:103F900080931A0701C0198289810F900F900F90AA
:103FA0000F900F90CF91DF910895DF93CF93CDB70E
:103FB000DEB727970FB6F894DEBF0FBECDBF9D8347
:103FC0008C837F836E838E819F819068EC81FD81DD
:103FD00091838083EC81FD81868197819B838A8395
:103FE0008C819D810E94DD0E8A819B8102960E94B8
:103FF000DD0EEA81FB81968980911707891728F4E5
:10400000EA81FB81868980931707EA81FB81868993
:10401000282F30E0C901880F991F880F991F880F3A
:10402000991F820F931FAC01425E584F8A819B817A
:104030009C012E5F3F4FCA01B9010E942D0EEA81FB
:10404000FB819689E0911107F09112078689891703
:1040500030F481E0898381E080931A0701C01982DE
:10406000898127960FB6F894DEBF0FBECDBFCF91E2
:10407000DF910895DF93CF9300D0CDB7DEB79A8359
:10408000898380911B07E981FA81808380911507DC
:1040900090911607E981FA81928381830F900F90A6
:1040A000CF91DF910895DF93CF93CDB7DEB72797F8
:1040B0000FB6F894DEBF0FBECDBF9D838C837F8388
:1040C0006E830FB6F8940F928091150790911607A2
:1040D0009A838983EC81FD81908180911B079817D9
:1040E00061F0EC81FD812181328189819A81821781
:1040F000930718F081E08B832DC0EC81FD81218135
:10410000328189819A81AC01421B530B9A01EE8165
:10411000FF818081918128173907D0F4EE81FF81DA
:1041200040815181EC81FD812181328189819A8197
:10413000B901681B790BCB01840F951FEE81FF81BC
:10414000918380838C819D810E943A201B8202C0D2
:1041500081E08B830F900FBE8B8127960FB6F8946A
:10416000DEBF0FBECDBFCF91DF910895DF93CF9318
:10417000CDB7DEB781E080931A07CF91DF91089524
:10418000DF93CF9300D0CDB7DEB79A8389830E94A7
:10419000872180911E078230D0F30E94E810F7CF6C
:1041A0000F931F93DF93CF93CDB7DEB72A970FB648
:1041B000F894DEBF0FBECDBF9B838A837D836C8363
:1041C0004E8338872F831A870987198221C08981F6
:1041D000482F50E08981282F30E08C819D81FC019F
:1041E000E20FF31F20818A819B81840F951FFC01C0
:1041F000799620838981282F30E08C819D81FC0174
:10420000E20FF31F8081882331F089818F5F8983DA
:1042100089818431E0F2EA81FB8114A68E818630A7
:1042200010F085E08E83EA81FB818E81868BEA81A6
:10423000FB818E8185A7EA81FB8116A68A819B81FD
:1042400002960E941D0E8A819B810C960E941D0E73
:10425000EA81FB818A819B81918780878E81282FCB
:1042600030E086E090E0821B930BEA81FB8195872A
:104270008487EA81FB818A819B81938B828B2A963A
:104280000FB6F894DEBF0FBECDBFCF91DF911F9167
:104290000F910895DF93CF930F92CDB7DEB71982B8
:1042A00013C08981282F30E0C901880F991F880F1A
:1042B000991F880F991F820F931F825E984F0E944B
:1042C000F30D89818F5F89838981863050F384E57E
:1042D00097E00E94F30D8DE597E00E94F30D8AE6CA
:1042E00097E00E94F30D83E797E00E94F30D84E5C9
:1042F00097E090936707809366078DE597E090932A
:104300006907809368070F90CF91DF910895DF933D
:10431000CF9300D00F92CDB7DEB72EC00E94D71C2E
:10432000809173071B82882311F481E08B830E94A4
:10433000E31C8B81882301F50FB6F8940F92E0916E
:104340007807F0917907868197819A83898389819B
:104350009A8102960E94DD0E80911407815080930D
:104360001407809113078150809313070F900FBE9D
:1043700089819A810E94532280911307882371F6C4
:104380000F900F900F90CF91DF910895DF93CF930F
:1043900000D0CDB7DEB79A838983E0911107F09101
:1043A000120789819A819383828320911507309126
:1043B000160789819A818217930770F480916807A4
:1043C0009091690720911107309112072E5F3F4F9E
:1043D000B9010E94710E1EC0409166075091670797
:1043E00080911107909112079C012E5F3F4FCA01E7
:1043F000B9010E94710E2091ED003091EE0089818B
:104400009A818217930730F489819A819093EE0004
:104410008093ED000F900F90CF91DF910895DF937F
:10442000CF93CDB7DEB728970FB6F894DEBF0FBE97
:10443000CDBF9C838B837E836D838FE290E00E944F
:10444000A50C9A83898389819A81009709F18D81CE
:104450009E81009739F48B819C810E94A50C9887DE
:104460008F8304C08D819E8198878F83E981FA8133
:104470008F819885908F878BE981FA818789908DCC
:10448000009731F489819A810E94FB0C1A8219826B
:1044900089819A8128960FB6F894DEBF0FBECDBFF2
:1044A000CF91DF910895DF93CF9300D0CDB7DEB7E2
:1044B0009A838983E981FA818789908D0E94FB0C18
:1044C00089819A810E94FB0C0F900F90CF91DF9110
:1044D0000895DF93CF9300D0CDB7DEB7E0916607A4
:1044E000F09167078081882339F48FEF9FEF9093D5
:1044F000EE008093ED0013C0E0916607F09167072E
:104500000580F681E02D868197819A838983E981F0
:10451000FA81828193819093EE008093ED000F9059
:104520000F90CF91DF910895DF93CF9300D0CDB757
:10453000DEB780911107909112079A838983898150
:104540009A810F900F90CF91DF910895DF93CF93D1
:1045500000D000D0CDB7DEB79C838B838B819C814C
:104560009A8389838B819C81009709F473C0E981C8
:10457000FA819689E0911107F091120786899817C0
:1045800008F068C0E981FA818485958599237CF0DB
:10459000E0911107F09112078689282F30E086E01C
:1045A00090E0821B930BE981FA8195878487E981EA
:1045B000FA8142855385E981FA818689282F30E086
:1045C000C901880F991F880F991F880F991F820FA3
:1045D000931F825E984F48175907A1F589819A81E8
:1045E00002960E94DD0EE0911107F0911207868974
:1045F000E981FA81868BE981FA8196898091170792
:10460000891728F4E981FA81868980931707E9815F
:10461000FA818689282F30E0C901880F991F880FF9
:10462000991F880F991F820F931FAC01425E584F4C
:1046300089819A819C012E5F3F4FCA01B9010E9476
:104640002D0E08C0E0911107F09112078689E981CB
:10465000FA81868B0F900F900F900F90CF91DF9182
:104660000895DF93CF9300D000D00F92CDB7DEB77F
:104670009D838C838C819D819B838A8319828C810D
:104680009D81009709F456C0EA81FB8186A581507F
:10469000EA81FB8186A7EA81FB819689EA81FB8119
:1046A00085A5981709F446C0EA81FB8186A5882371
:1046B00009F040C08A819B8102960E94DD0EEA814A
:1046C000FB8185A5EA81FB81868BEA81FB81868956
:1046D000282F30E086E090E0821B930BEA81FB817B
:1046E00095878487EA81FB819689809117078917CE
:1046F00028F4EA81FB81868980931707EA81FB8190
:104700008689282F30E0C901880F991F880F991FCB
:10471000880F991F820F931FAC01425E584F8A8108
:104720009B819C012E5F3F4FCA01B9010E942D0E53
:1047300081E0898389810F900F900F900F900F90E7
:10474000CF91DF910895DF93CF9300D0CDB7DEB73F
:10475000E0911107F0911207848595859A838983EA
:10476000A0911107B0911207E0911107F091120783
:104770008689282F30E086E090E0821B930B1D96FF
:104780009C938E931C9789819A810F900F90CF9163
:10479000DF910895DF93CF93CDB7DEB780911107F6
:1047A00090911207009739F0E0911107F0911207EC
:1047B00086A58F5F86A78091110790911207CF91F0
:1047C000DF910895DF93CF9300D0CDB7DEB79A8302
:1047D000898389819A81009731F089819A819093A8
:1047E0007D0780937C070F900F90CF91DF91089504
:1047F000DF93CF93CDB7DEB7A7E2B0E0E7E2F0E01A
:10480000808180648C93A7E2B0E0E7E2F0E08081F1
:104810008F778C93A7E2B0E0E7E2F0E080818F7DB4
:104820008C93A6E2B0E0E6E2F0E0808180628C93B7
:10483000A0E5B0E0E0E5F0E080818F7E8C93A0E51C
:10484000B0E0E0E5F0E080818F7D8C93A0E5B0E002
:10485000E0E5F0E080818F7B8C93A0E5B0E0E0E5BF
:10486000F0E080818F778C93A6E2B0E0E6E2F0E0A2
:1048700080818E7F8C93A6E2B0E0E6E2F0E080815A
:1048800082608C93A6E2B0E0E6E2F0E08081846092
:104890008C93A6E2B0E0E6E2F0E0808180688C9341
:1048A000CF91DF910895DF93CF930F92CDB7DEB70D
:1048B0008983A7E2B0E0E7E2F0E08081807E8C931C
:1048C000A7E2B0E0E7E2F0E090818981892B8C9348
:1048D000A6E2B0E0E6E2F0E0808180648C93E6E25C
:1048E000F0E0808182958F70882F90E081709070C9
:1048F0000097A9F3A6E2B0E0E6E2F0E080818061F3
:104900008C93E4E2F0E0808191810F90CF91DF9170
:104910000895DF93CF930F92CDB7DEB78983A7E2D7
:10492000B0E0E7E2F0E08081807E8C93A7E2B0E027
:10493000E7E2F0E090818981892B8C93A6E2B0E0D8
:10494000E6E2F0E08081877F8C93A6E2B0E0E6E2C9
:10495000F0E0808180648C930F90CF91DF91089577
:104960001F920F920FB60F9211242F933F934F93E4
:104970005F936F937F938F939F93AF93BF93EF93C7
:10498000FF93DF93CF93CDB7DEB780917C079091F3
:104990007D07009749F0E0917C07F0917D07A4E244
:1049A000B0E08D919C910995CF91DF91FF91EF91AE
:1049B000BF91AF919F918F917F916F915F914F9137
:1049C0003F912F910F900FBE0F901F901895DF937E
:1049D000CF93CDB7DEB727970FB6F894DEBF0FBEE3
:1049E000CDBF89836A834B838B81813009F06FC08F
:1049F0008981282F30E03F832E838E819F818130F3
:104A0000910549F12E813F81223031052CF48E81B0
:104A10009F81009761F0D2C02E813F812230310505
:104A200071F18E819F8183309105E9F1C7C0AAE3BE
:104A3000B0E0EAE3F0E08081482F8A81282F30E05F
:104A400081E090E0022E02C0880F991F0A94E2F7DD
:104A5000842B8C93B3C0A7E3B0E0E7E3F0E0808160
:104A6000482F8A81282F30E081E090E0022E02C09A
:104A7000880F991F0A94E2F7842B8C939FC0A4E3BC
:104A8000B0E0E4E3F0E08081482F8A81282F30E015
:104A900081E090E0022E02C0880F991F0A94E2F78D
:104AA000842B8C938BC0A1E3B0E0E1E3F0E0808144
:104AB000482F8A81282F30E081E090E0022E02C04A
:104AC000880F991F0A94E2F7842B8C9377C08B810F
:104AD000882309F073C08981282F30E03D832C831F
:104AE0008C819D818130910559F12C813D8122304D
:104AF00031052CF48C819D81009769F05FC02C8179
:104B00003D812230310589F18C819D818330910571
:104B100009F440C053C0AAE3B0E0EAE3F0E08081CA
:104B2000482F8A81282F30E081E090E0022E02C0D9
:104B3000880F991F0A94E2F7809584238C933EC0D6
:104B4000A7E3B0E0E7E3F0E08081482F8A81282FD7
:104B500030E081E090E0022E02C0880F991F0A9495
:104B6000E2F7809584238C9329C0A4E3B0E0E4E3CA
:104B7000F0E08081482F8A81282F30E081E090E0AA
:104B8000022E02C0880F991F0A94E2F780958423B1
:104B90008C9314C0A1E3B0E0E1E3F0E08081482F02
:104BA0008A81282F30E081E090E0022E02C0880F39
:104BB000991F0A94E2F7809584238C9327960FB669
:104BC000F894DEBF0FBECDBFCF91DF910895DF9384
:104BD000CF93CDB7DEB727970FB6F894DEBF0FBEE1
:104BE000CDBF89836A834B838B81813009F06FC08D
:104BF0008981282F30E03F832E838E819F818130F1
:104C0000910549F12E813F81223031052CF48E81AE
:104C10009F81009761F0D2C02E813F812230310503
:104C200071F18E819F8183309105E9F1C7C0ABE3BB
:104C3000B0E0EBE3F0E08081482F8A81282F30E05C
:104C400081E090E0022E02C0880F991F0A94E2F7DB
:104C5000842B8C93B3C0A8E3B0E0E8E3F0E080815C
:104C6000482F8A81282F30E081E090E0022E02C098
:104C7000880F991F0A94E2F7842B8C939FC0A5E3B9
:104C8000B0E0E5E3F0E08081482F8A81282F30E012
:104C900081E090E0022E02C0880F991F0A94E2F78B
:104CA000842B8C938BC0A2E3B0E0E2E3F0E0808140
:104CB000482F8A81282F30E081E090E0022E02C048
:104CC000880F991F0A94E2F7842B8C9377C08B810D
:104CD000882309F073C08981282F30E03D832C831D
:104CE0008C819D818130910559F12C813D8122304B
:104CF00031052CF48C819D81009769F05FC02C8177
:104D00003D812230310589F18C819D81833091056F
:104D100009F440C053C0ABE3B0E0EBE3F0E08081C6
:104D2000482F8A81282F30E081E090E0022E02C0D7
:104D3000880F991F0A94E2F7809584238C933EC0D4
:104D4000A8E3B0E0E8E3F0E08081482F8A81282FD3
:104D500030E081E090E0022E02C0880F991F0A9493
:104D6000E2F7809584238C9329C0A5E3B0E0E5E3C6
:104D7000F0E08081482F8A81282F30E081E090E0A8
:104D8000022E02C0880F991F0A94E2F780958423AF
:104D90008C9314C0A2E3B0E0E2E3F0E08081482FFE
:104DA0008A81282F30E081E090E0022E02C0880F37
:104DB000991F0A94E2F7809584238C9327960FB667
:104DC000F894DEBF0FBECDBFCF91DF910895DF9382
:104DD000CF9300D000D0CDB7DEB789836A838981B5
:104DE000282F30E03C832B838B819C81813091057F
:104DF000D1F02B813C81223031052CF48B819C81B8
:104E0000009761F01EC02B813C812230310581F07A
:104E10008B819C818330910581F013C0EAE3F0E03F
:104E20008A8180830EC0E7E3F0E08A81808309C035
:104E3000E4E3F0E08A81808304C0E1E3F0E08A816A
:104E400080830F900F900F900F90CF91DF91089576
:104E5000DF93CF9300D000D0CDB7DEB789836A83CC
:104E60008981282F30E03C832B838B819C8181308A
:104E70009105D1F02B813C81223031052CF48B81BE
:104E80009C81009761F01EC02B813C81223031054E
:104E900081F08B819C818330910581F013C0EBE31D
:104EA000F0E08A8180830EC0E8E3F0E08A818083AD
:104EB00009C0E5E3F0E08A81808304C0E2E3F0E02A
:104EC0008A8180830F900F900F900F90CF91DF9188
:104ED0000895DF93CF9300D000D00F92CDB7DEB707
:104EE0008A836B838A81282F30E03D832C834C8119
:104EF0005D814130510541F18C819D818230910568
:104F000034F42C813D812115310561F052C04C8172
:104F10005D814230510551F18C819D818330910535
:104F2000B9F147C0E9E3F0E08081282F30E08B81C0
:104F3000882F90E0A90102C0559547958A95E2F720
:104F4000CA018170898335C0E6E3F0E08081282FB3
:104F500030E08B81882F90E0A90102C055954795DC
:104F60008A95E2F7CA018170898323C0E3E3F0E008
:104F70008081282F30E08B81882F90E0A90102C02A
:104F8000559547958A95E2F7CA018170898311C0CA
:104F9000E0E3F0E08081282F30E08B81882F90E0E3
:104FA000A90102C0559547958A95E2F7CA0181701B
:104FB000898389810F900F900F900F900F90CF9160
:104FC000DF910895DF93CF9300D000D0CDB7DEB747
:104FD00089836A838981282F30E03C832B838B81EE
:104FE0009C818130910549F12B813C812230310532
:104FF0002CF48B819C81009761F05AC02B813C81FD
:105000002230310571F18B819C8183309105E9F16A
:105010004FC0ABE3B0E0EBE3F0E08081482F8A8142
:10502000282F30E081E090E0022E02C0880F991F07
:105030000A94E2F784278C933BC0A8E3B0E0E8E34E
:10504000F0E08081482F8A81282F30E081E090E0D5
:10505000022E02C0880F991F0A94E2F784278C93CE
:1050600027C0A5E3B0E0E5E3F0E08081482F8A8126
:10507000282F30E081E090E0022E02C0880F991FB7
:105080000A94E2F784278C9313C0A2E3B0E0E2E332
:10509000F0E08081482F8A81282F30E081E090E085
:1050A000022E02C0880F991F0A94E2F784278C937E
:1050B0000F900F900F900F90CF91DF910895DF9395
:1050C000CF93CDB7DEB781E00E94352C8DE790E01D
:1050D0000E94692C81E067E00E94942D80E890E0B6
:1050E0000E94692C80918807882F90E0A0E0B0E0B2
:1050F000BC01CD010E94932C81E06CE00E94942DB4
:1051000083E890E00E94692C809189070E944F2CCF
:1051100082E061E00E94942D87E890E00E94692C73
:1051200082E068E00E94942D8CE890E00E94692C57
:10513000CF91DF910895DF93CF93CDB7DEB781E0B4
:105140000E94352C82E990E00E94692C81E06BE09E
:105150000E94942D87E990E00E94692CCF91DF9105
:105160000895DF93CF93CDB7DEB781E00E94352C51
:1051700081E065E00E94942D8CE990E00E94692C0A
:1051800082E066E00E94942D85EA90E00E94692CFE
:10519000CF91DF910895DF93CF93CDB7DEB781E054
:1051A0006FE00E94942D809189070E944F2CCF912F
:1051B000DF910895DF93CF93CDB7DEB781E063E051
:1051C0000E94942D80918707882F90E0A0E0B0E0A6
:1051D000BC01CD010E94932CCF91DF910895DF9304
:1051E000CF93CDB7DEB781E069E00E94942D809126
:1051F0008807882F90E0A0E0B0E0BC01CD010E94BC
:10520000932CCF91DF910895DF93CF93CDB7DEB785
:105210006C970FB6F894DEBF0FBECDBF83E064E09D
:1052200041E00E94E72580E090E0A0E8BFE3898F9D
:105230009A8FAB8FBC8F698D7A8D8B8D9C8D20E082
:1052400030E04AEF54E40E941F02DC01CB018D8B59
:105250009E8BAF8BB88F6D897E898F89988D20E06A
:1052600030E040E85FE30E94790388232CF481E07A
:1052700090E09C8B8B8B3FC06D897E898F89988D48
:1052800020E03FEF4FE757E40E94190318164CF552
:10529000698D7A8D8B8D9C8D20E030E040E251E469
:1052A0000E941F02DC01CB01BC01CD010E9449001C
:1052B000DC01CB019C8B8B8B0FC088EC90E09A8B30
:1052C000898B89899A890197F1F79A8B898B8B89C8
:1052D0009C8901979C8B8B8B8B899C89009769F7A4
:1052E00014C06D897E898F89988D0E944900DC01E8
:1052F000CB019C8B8B8B8B899C89988B8F878F851F
:1053000098890197F1F7988B8F8783E064E040E0FC
:105310000E94E72580E090E0A0E8BFE38B879C87B0
:10532000AD87BE876B857C858D859E8520E030E0CE
:105330004AEF54E40E941F02DC01CB018F8398875F
:10534000A987BA876F81788589859A8520E030E0C2
:1053500040E85FE30E94790388232CF481E090E029
:105360009E838D833FC06F81788589859A8520E0F3
:105370003FEF4FE757E40E94190318164CF56B8571
:105380007C858D859E8520E030E040E251E40E94DE
:105390001F02DC01CB01BC01CD010E944900DC01F0
:1053A000CB019E838D830FC088EC90E09C838B8320
:1053B0008B819C810197F1F79C838B838D819E81EA
:1053C00001979E838D838D819E81009769F714C01C
:1053D0006F81788589859A850E944900DC01CB011F
:1053E0009E838D838D819E819A83898389819A8111
:1053F0000197F1F79A8389836C960FB6F894DEBF14
:105400000FBECDBFCF91DF910895DF93CF93CDB77E
:10541000DEB7C154D0400FB6F894DEBF0FBECDBF8B
:1054200080E090E0A8E4B2E48DAB9EABAFABB8AF48
:105430006DA97EA98FA998AD20E030E04AEF54E431
:105440000E941F02DC01CB0189AB9AABABABBCABBA
:1054500069A97AA98BA99CA920E030E040E85FE324
:105460000E94790388232CF481E090E098AB8FA709
:105470003FC069A97AA98BA99CA920E03FEF4FE71B
:1054800057E40E94190318164CF56DA97EA98FA93F
:1054900098AD20E030E040E251E40E941F02DC01C0
:1054A000CB01BC01CD010E944900DC01CB0198ABCE
:1054B0008FA70FC088EC90E09EA78DA78DA59EA515
:1054C0000197F1F79EA78DA78FA598A9019798AB93
:1054D0008FA78FA598A9009769F714C069A97AA921
:1054E0008BA99CA90E944900DC01CB0198AB8FA736
:1054F0008FA598A99CA78BA78BA59CA50197F1F7D1
:105500009CA78BA719AECE01CA969EAF8DAFEFEECA
:10551000F0E02196FFAFEEAF2197F3E02296FFAFC8
:1055200022972196EEADFFAD2197008021968EAD9A
:105530009FAD2197019621969FAF8EAF2197EDAD3C
:10554000FEAD00828DAD9EAD01969EAF8DAF2296D1
:105550009FAD2297915022969FAF22972296EFAD52
:105560002297EE23F1F611C089AD282F30E0CE014D
:10557000CA96FC01E20FF31F908183E0692F41E09E
:105580000E94E72489AD8F5F89AF89AD833060F3D6
:1055900082E06FEF0E94E72688E30E94352C80E0CE
:1055A00090E0A0E8BFE38FA398A7A9A7BAA76FA12F
:1055B00078A589A59AA520E030E04AEF54E40E943E
:1055C0001F02DC01CB018BA39CA3ADA3BEA36BA1E7
:1055D0007CA18DA19EA120E030E040E85FE30E9425
:1055E000790388232CF481E090E09AA389A33FC03B
:1055F0006BA17CA18DA19EA120E03FEF4FE757E476
:105600000E94190318164CF56FA178A589A59AA5D3
:1056100020E030E040E251E40E941F02DC01CB01B7
:10562000BC01CD010E944900DC01CB019AA389A3F2
:105630000FC088EC90E098A38F8F8F8D98A1019771
:10564000F1F798A38F8F89A19AA101979AA389A3B3
:1056500089A19AA1009769F714C06BA17CA18DA1C3
:105660009EA10E944900DC01CB019AA389A389A1D4
:105670009AA19E8F8D8F8D8D9E8D0197F1F79E8FB4
:105680008D8F8CE00E94352C80E090E0A0E8BFE395
:10569000898F9A8FAB8FBC8F698D7A8D8B8D9C8D06
:1056A00020E030E04AEF54E40E941F02DC01CB010D
:1056B0008D8B9E8BAF8BB88F6D897E898F89988DEE
:1056C00020E030E040E85FE30E94790388232CF477
:1056D00081E090E09C8B8B8B3FC06D897E898F89A8
:1056E000988D20E03FEF4FE757E40E94190318160A
:1056F0004CF5698D7A8D8B8D9C8D20E030E040E2F9
:1057000051E40E941F02DC01CB01BC01CD010E94CB
:105710004900DC01CB019C8B8B8B0FC088EC90E0A7
:105720009A8B898B89899A890197F1F79A8B898B52
:105730008B899C8901979C8B8B8B8B899C8900978B
:1057400069F714C06D897E898F89988D0E94490000
:10575000DC01CB019C8B8B8B8B899C89988B8F87F1
:105760008F8598890197F1F7988B8F8781E00E9448
:10577000352C80E090E0A0E0B0E48B879C87AD877B
:10578000BE876B857C858D859E8520E030E04AEF65
:1057900054E40E941F02DC01CB018F839887A98704
:1057A000BA876F81788589859A8520E030E040E866
:1057B0005FE30E94790388232CF481E090E09E83CC
:1057C0008D833FC06F81788589859A8520E03FEF82
:1057D0004FE757E40E94190318164CF56B857C853A
:1057E0008D859E8520E030E040E251E40E941F025A
:1057F000DC01CB01BC01CD010E944900DC01CB01E1
:105800009E838D830FC088EC90E09C838B838B817B
:105810009C810197F1F79C838B838D819E810197F9
:105820009E838D838D819E81009769F714C06F815F
:10583000788589859A850E944900DC01CB019E8389
:105840008D838D819E819A83898389819A81019735
:10585000F1F79A838983CF5BDF4F0FB6F894DEBFF1
:105860000FBECDBFCF91DF910895DF93CF930F92FD
:10587000CDB7DEB7898383E062E040E00E94E72590
:1058800083E063E040E00E94E72582E069810E94B6
:1058900028270E9404290F90CF91DF910895DF936C
:1058A000CF930F92CDB7DEB7898383E062E041E00A
:1058B0000E94E72583E063E040E00E94E72582E064
:1058C00069810E9428270E9404290F90CF91DF91BF
:1058D0000895DF93CF9300D00F92CDB7DEB79B83AF
:1058E0008A83198219820EC08981282F30E08A812B
:1058F0009B81FC01E20FF31F80810E944F2C898164
:105900008F5F89838981282F30E08A819B81FC0108
:10591000E20FF31F8081882339F70F900F900F90CB
:10592000CF91DF910895EF92FF920F931F93DF9332
:10593000CF93CDB7DEB761970FB6F894DEBF0FBE39
:10594000CDBF6E877F87888B998B8E859F85A88931
:10595000B9898A879B87AC87BD871E821F8218867C
:10596000198681E090E0A0E0B0E08A839B83AC835D
:10597000BD8319828E859F85A889B989BB2394F43C
:105980008E859F85A889B989B095A09590958195B8
:105990009F4FAF4FBF4F8A879B87AC87BD8781E002
:1059A000898342C08A859B85AC85BD850097A1050A
:1059B000B105D1F580E30E944F2C36C08A819B81CE
:1059C000AC81BD812AE030E040E050E0BC01CD0177
:1059D0000E94D2317B018C018A859B85AC85BD8577
:1059E0002AE030E040E050E0BC01CD010E940532E9
:1059F000DC01CB018E0D9F1DA01FB11F8A839B83ED
:105A0000AC83BD838A859B85AC85BD852AE030E06B
:105A100040E050E0BC01CD010E940532DA01C9012D
:105A20008A879B87AC87BD878A859B85AC85BD852A
:105A3000181619061A061B060CF28E859F85A88972
:105A4000B989BB2384F48E859F85A889B989B095CF
:105A5000A095909581959F4FAF4FBF4F8A879B87A9
:105A6000AC87BD874AC08E859F85A889B9898A87FA
:105A70009B87AC87BD8741C08A819B81AC81BD81FA
:105A80002AE030E040E050E0BC01CD010E94053248
:105A9000DC01CB018E839F83A887B9878981813000
:105AA00021F48DE20E944F2C19828E81805D0E942C
:105AB0004F2C8A819B81AC81BD812AE030E040E09F
:105AC00050E0BC01CD010E940532DA01C9018A8390
:105AD0009B83AC83BD838A859B85AC85BD852AE08D
